S014000050574D4D6F746F724374726C2E7372656376
S113000009C00EC00DC00CC00BC00AC009C008C096
S113001007C006C011241FBECFE9CDBF1FD037C013
S1130020EFCF81E087BB86E088BB8FEF82BF16BE2F
S1130030089583E88FBD83E083BF0895A89581B5B3
S1130040886181BD8EE081BD0895A89584B7877FBE
S113005084BF81B5886181BD11BC0895F6DFE1DFFD
S1130060E8DFECDF80E0B19B8150B29B8F5F8F3F74
S113007021F0811103C081E001C08EEF86BFA895F5
S1130080EFE5F9E03197F1F700C00000ECCFF89408
S1050090FFCF9C
S9030000FC
