:1000000009C00EC00DC022C00BC00AC009C008C084
:1000100007C006C011241FBECFE9CDBF40D055C0D8
:10002000EFCF81E087BB86E188BB089587EC86B976
:1000300083E687B9089583E88FBD83E083BF89B7DE
:10004000826089BF8FEF82BF16BE08951F920F9204
:100050000FB60F9211248F93B19903C086B78150C8
:1000600086BFB29903C086B78F5F86BF8F910F900E
:100070000FBE0F901F901895369A85B10895A895D8
:1000800081B5886181BD8EE081BD0895A89584B752
:10009000877F84BF81B5886181BD11BC0895F6DF7B
:1000A000C0DFC9DFECDFC2DF7894DDEFC1E0B499D7
:1000B00002C0E2DF86BF86B78E3F08F0D6BF86B7A4
:0E00C000811101C0C6BFA895F2CFF894FFCF02
:00000001FF
