:1000000009C00EC00DC00CC00BC00AC009C008C09A
:1000100007C006C011241FBECFE9CDBF27D042C004
:10002000EFCF81E087BB86E188BB089587EC86B976
:1000300083E687B9089583E88FBD83E083BF8FEFA0
:1000400082BF16BE0895369A85B10895A89581B5E8
:10005000886181BD8EE081BD0895A89584B7877FB2
:1000600084BF81B5886181BD11BC0895F6DFD9DFF9
:10007000E2DFECDFDBDF80E0B49BE5DFB19B8150AA
:10008000B29B8F5F8E3F20F4811103C081E001C0DD
:100090008FEF86BFA895EFE5F9E03197F1F700C043
:0800A0000000EACFF894FFCF45
:00000001FF
